{
  "contractName": "DAO",
  "abi": [
    {
      "inputs": [
        {
          "internalType": "address",
          "name": "_tokenAddress",
          "type": "address"
        }
      ],
      "stateMutability": "nonpayable",
      "type": "constructor"
    },
    {
      "anonymous": false,
      "inputs": [
        {
          "indexed": true,
          "internalType": "uint256",
          "name": "proposalIndex",
          "type": "uint256"
        },
        {
          "indexed": false,
          "internalType": "string",
          "name": "title",
          "type": "string"
        },
        {
          "indexed": false,
          "internalType": "uint256",
          "name": "proposalDeadline",
          "type": "uint256"
        }
      ],
      "name": "ProposalCreated",
      "type": "event"
    },
    {
      "anonymous": false,
      "inputs": [
        {
          "indexed": true,
          "internalType": "uint256",
          "name": "proposalIndex",
          "type": "uint256"
        },
        {
          "indexed": false,
          "internalType": "bool",
          "name": "proposalPassed",
          "type": "bool"
        }
      ],
      "name": "ProposalFinished",
      "type": "event"
    },
    {
      "anonymous": false,
      "inputs": [
        {
          "indexed": true,
          "internalType": "uint256",
          "name": "proposalIndex",
          "type": "uint256"
        },
        {
          "indexed": true,
          "internalType": "address",
          "name": "voter",
          "type": "address"
        },
        {
          "indexed": false,
          "internalType": "uint256",
          "name": "vote",
          "type": "uint256"
        }
      ],
      "name": "Voted",
      "type": "event"
    },
    {
      "inputs": [
        {
          "internalType": "uint256",
          "name": "",
          "type": "uint256"
        },
        {
          "internalType": "address",
          "name": "",
          "type": "address"
        }
      ],
      "name": "hasVoted",
      "outputs": [
        {
          "internalType": "bool",
          "name": "",
          "type": "bool"
        }
      ],
      "stateMutability": "view",
      "type": "function"
    },
    {
      "inputs": [
        {
          "internalType": "uint256",
          "name": "",
          "type": "uint256"
        }
      ],
      "name": "proposals",
      "outputs": [
        {
          "internalType": "string",
          "name": "title",
          "type": "string"
        },
        {
          "internalType": "string",
          "name": "description",
          "type": "string"
        },
        {
          "internalType": "uint256",
          "name": "proposalDeadline",
          "type": "uint256"
        },
        {
          "internalType": "uint256",
          "name": "minimumVotes",
          "type": "uint256"
        },
        {
          "internalType": "uint256",
          "name": "votesForOptionA",
          "type": "uint256"
        },
        {
          "internalType": "uint256",
          "name": "votesForOptionB",
          "type": "uint256"
        },
        {
          "internalType": "uint8",
          "name": "winningOption",
          "type": "uint8"
        },
        {
          "internalType": "enum DAO.ProposalStatus",
          "name": "status",
          "type": "uint8"
        },
        {
          "internalType": "address",
          "name": "admin",
          "type": "address"
        }
      ],
      "stateMutability": "view",
      "type": "function"
    },
    {
      "inputs": [],
      "name": "ratherTokenContract",
      "outputs": [
        {
          "internalType": "contract RatherToken",
          "name": "",
          "type": "address"
        }
      ],
      "stateMutability": "view",
      "type": "function"
    },
    {
      "inputs": [
        {
          "internalType": "string",
          "name": "_title",
          "type": "string"
        },
        {
          "internalType": "string",
          "name": "_description",
          "type": "string"
        },
        {
          "internalType": "uint256",
          "name": "_proposalDeadline",
          "type": "uint256"
        },
        {
          "internalType": "uint256",
          "name": "_minimumVotes",
          "type": "uint256"
        }
      ],
      "name": "createProposal",
      "outputs": [],
      "stateMutability": "nonpayable",
      "type": "function"
    },
    {
      "inputs": [
        {
          "internalType": "uint256",
          "name": "_proposalIndex",
          "type": "uint256"
        },
        {
          "internalType": "uint256",
          "name": "_vote",
          "type": "uint256"
        }
      ],
      "name": "vote",
      "outputs": [],
      "stateMutability": "nonpayable",
      "type": "function"
    },
    {
      "inputs": [
        {
          "internalType": "uint256",
          "name": "_proposalIndex",
          "type": "uint256"
        },
        {
          "internalType": "enum DAO.ProposalStatus",
          "name": "_newStatus",
          "type": "uint8"
        }
      ],
      "name": "changeProposalStatus",
      "outputs": [],
      "stateMutability": "nonpayable",
      "type": "function"
    },
    {
      "inputs": [
        {
          "internalType": "uint256",
          "name": "_proposalIndex",
          "type": "uint256"
        }
      ],
      "name": "finishProposal",
      "outputs": [],
      "stateMutability": "nonpayable",
      "type": "function"
    },
    {
      "inputs": [
        {
          "internalType": "uint256",
          "name": "_proposalIndex",
          "type": "uint256"
        }
      ],
      "name": "getWinningOption",
      "outputs": [
        {
          "internalType": "uint8",
          "name": "winningOption",
          "type": "uint8"
        }
      ],
      "stateMutability": "view",
      "type": "function"
    },
    {
      "inputs": [],
      "name": "getAllProposals",
      "outputs": [
        {
          "components": [
            {
              "internalType": "string",
              "name": "title",
              "type": "string"
            },
            {
              "internalType": "string",
              "name": "description",
              "type": "string"
            },
            {
              "internalType": "uint256",
              "name": "proposalDeadline",
              "type": "uint256"
            },
            {
              "internalType": "uint256",
              "name": "minimumVotes",
              "type": "uint256"
            },
            {
              "internalType": "uint256",
              "name": "votesForOptionA",
              "type": "uint256"
            },
            {
              "internalType": "uint256",
              "name": "votesForOptionB",
              "type": "uint256"
            },
            {
              "internalType": "uint8",
              "name": "winningOption",
              "type": "uint8"
            },
            {
              "internalType": "enum DAO.ProposalStatus",
              "name": "status",
              "type": "uint8"
            },
            {
              "internalType": "address",
              "name": "admin",
              "type": "address"
            }
          ],
          "internalType": "struct DAO.Proposal[]",
          "name": "",
          "type": "tuple[]"
        }
      ],
      "stateMutability": "view",
      "type": "function"
    },
    {
      "inputs": [
        {
          "internalType": "uint256",
          "name": "_proposalIndex",
          "type": "uint256"
        }
      ],
      "name": "getProposal",
      "outputs": [
        {
          "internalType": "string",
          "name": "title",
          "type": "string"
        },
        {
          "internalType": "string",
          "name": "description",
          "type": "string"
        },
        {
          "internalType": "uint256",
          "name": "proposalDeadline",
          "type": "uint256"
        },
        {
          "internalType": "uint256",
          "name": "minimumVotes",
          "type": "uint256"
        },
        {
          "internalType": "uint256",
          "name": "votesForOptionA",
          "type": "uint256"
        },
        {
          "internalType": "uint256",
          "name": "votesForOptionB",
          "type": "uint256"
        },
        {
          "internalType": "uint8",
          "name": "winningOption",
          "type": "uint8"
        },
        {
          "internalType": "enum DAO.ProposalStatus",
          "name": "status",
          "type": "uint8"
        }
      ],
      "stateMutability": "view",
      "type": "function"
    }
  ],
  "bytecode": "0x608060405234801562000010575f80fd5b50604051620026c8380380620026c88339818101604052810190620000369190620000e1565b805f806101000a81548173ffffffffffffffffffffffffffffffffffffffff021916908373ffffffffffffffffffffffffffffffffffffffff1602179055505062000111565b5f80fd5b5f73ffffffffffffffffffffffffffffffffffffffff82169050919050565b5f620000ab8262000080565b9050919050565b620000bd816200009f565b8114620000c8575f80fd5b50565b5f81519050620000db81620000b2565b92915050565b5f60208284031215620000f957620000f86200007c565b5b5f6200010884828501620000cb565b91505092915050565b6125a9806200011f5f395ff3fe608060405234801561000f575f80fd5b506004361061009c575f3560e01c80638c14832f116100645780638c14832f1461015c578063a62868701461017a578063b384abef146101aa578063c7f758a8146101c6578063cceb68f5146101fd5761009c565b8063013cf08b146100a057806327393278146100d857806343859632146100f45780636b5e176614610124578063707b852714610140575b5f80fd5b6100ba60048036038101906100b5919061132a565b61021b565b6040516100cf999897969594939291906114bb565b60405180910390f35b6100f260048036038101906100ed919061132a565b6103b9565b005b61010e6004803603810190610109919061157e565b6105bd565b60405161011b91906115d6565b60405180910390f35b61013e6004803603810190610139919061171b565b6105e7565b005b61015a600480360381019061015591906117da565b6107fd565b005b6101646109ef565b6040516101719190611873565b60405180910390f35b610194600480360381019061018f919061132a565b610a12565b6040516101a1919061188c565b60405180910390f35b6101c460048036038101906101bf91906118a5565b610ac6565b005b6101e060048036038101906101db919061132a565b610efb565b6040516101f49897969594939291906118e3565b60405180910390f35b610205611095565b6040516102129190611b75565b60405180910390f35b6001818154811061022a575f80fd5b905f5260205f2090600702015f91509050805f01805461024990611bc2565b80601f016020809104026020016040519081016040528092919081815260200182805461027590611bc2565b80156102c05780601f10610297576101008083540402835291602001916102c0565b820191905f5260205f20905b8154815290600101906020018083116102a357829003601f168201915b5050505050908060010180546102d590611bc2565b80601f016020809104026020016040519081016040528092919081815260200182805461030190611bc2565b801561034c5780601f106103235761010080835404028352916020019161034c565b820191905f5260205f20905b81548152906001019060200180831161032f57829003601f168201915b505050505090806002015490806003015490806004015490806005015490806006015f9054906101000a900460ff16908060060160019054906101000a900460ff16908060060160029054906101000a900473ffffffffffffffffffffffffffffffffffffffff16905089565b5f600182815481106103ce576103cd611bf2565b5b905f5260205f20906007020190506002808111156103ef576103ee611409565b5b8160060160019054906101000a900460ff16600281111561041357610412611409565b5b03610453576040517f08c379a000000000000000000000000000000000000000000000000000000000815260040161044a90611c69565b60405180910390fd5b8060060160029054906101000a900473ffffffffffffffffffffffffffffffffffffffff1673ffffffffffffffffffffffffffffffffffffffff163373ffffffffffffffffffffffffffffffffffffffff16146104e5576040517f08c379a00000000000000000000000000000000000000000000000000000000081526004016104dc90611cf7565b60405180910390fd5b60028160060160016101000a81548160ff0219169083600281111561050d5761050c611409565b5b021790555080600301548160050154826004015461052b9190611d42565b1061058057806005015481600401541115610561575f816006015f6101000a81548160ff021916908360ff16021790555061057f565b6001816006015f6101000a81548160ff021916908360ff1602179055505b5b817f62e6fcb90e5285906a572c594624c50c2dc090221866bc44690f30bdeb42a4f260016040516105b191906115d6565b60405180910390a25050565b6002602052815f5260405f20602052805f5260405f205f915091509054906101000a900460ff1681565b428211610629576040517f08c379a000000000000000000000000000000000000000000000000000000000815260040161062090611dbf565b60405180910390fd5b60016040518061012001604052808681526020018581526020018481526020018381526020015f81526020015f81526020015f60ff1681526020015f600281111561067757610676611409565b5b81526020013373ffffffffffffffffffffffffffffffffffffffff16815250908060018154018082558091505060019003905f5260205f2090600702015f909190919091505f820151815f0190816106cf9190611f71565b5060208201518160010190816106e59190611f71565b5060408201518160020155606082015181600301556080820151816004015560a0820151816005015560c0820151816006015f6101000a81548160ff021916908360ff16021790555060e08201518160060160016101000a81548160ff0219169083600281111561075957610758611409565b5b02179055506101008201518160060160026101000a81548173ffffffffffffffffffffffffffffffffffffffff021916908373ffffffffffffffffffffffffffffffffffffffff16021790555050505f600180805490506107ba9190612040565b9050807ff5dc0da9afa6d080780a49fd8c680f03d2ddf3c067cd6d0c85360c096644d2d386856040516107ee929190612073565b60405180910390a25050505050565b5f6001838154811061081257610811611bf2565b5b905f5260205f20906007020190508060060160029054906101000a900473ffffffffffffffffffffffffffffffffffffffff1673ffffffffffffffffffffffffffffffffffffffff163373ffffffffffffffffffffffffffffffffffffffff16146108b2576040517f08c379a00000000000000000000000000000000000000000000000000000000081526004016108a990611cf7565b60405180910390fd5b6002808111156108c5576108c4611409565b5b8160060160019054906101000a900460ff1660028111156108e9576108e8611409565b5b03610929576040517f08c379a0000000000000000000000000000000000000000000000000000000008152600401610920906120eb565b60405180910390fd5b5f600281111561093c5761093b611409565b5b82600281111561094f5761094e611409565b5b148061097f57506001600281111561096a57610969611409565b5b82600281111561097d5761097c611409565b5b145b6109be576040517f08c379a00000000000000000000000000000000000000000000000000000000081526004016109b590612153565b60405180910390fd5b818160060160016101000a81548160ff021916908360028111156109e5576109e4611409565b5b0217905550505050565b5f8054906101000a900473ffffffffffffffffffffffffffffffffffffffff1681565b5f8060018381548110610a2857610a27611bf2565b5b905f5260205f2090600702019050600280811115610a4957610a48611409565b5b8160060160019054906101000a900460ff166002811115610a6d57610a6c611409565b5b14610aad576040517f08c379a0000000000000000000000000000000000000000000000000000000008152600401610aa4906121bb565b60405180910390fd5b806006015f9054906101000a900460ff16915050919050565b5f805f9054906101000a900473ffffffffffffffffffffffffffffffffffffffff1673ffffffffffffffffffffffffffffffffffffffff166370a08231336040518263ffffffff1660e01b8152600401610b2091906121d9565b602060405180830381865afa158015610b3b573d5f803e3d5ffd5b505050506040513d601f19601f82011682018060405250810190610b5f9190612206565b11610b9f576040517f08c379a0000000000000000000000000000000000000000000000000000000008152600401610b969061227b565b60405180910390fd5b5f811480610bad5750600181145b610bec576040517f08c379a0000000000000000000000000000000000000000000000000000000008152600401610be390612309565b60405180910390fd5b4260018381548110610c0157610c00611bf2565b5b905f5260205f2090600702016002015411610c51576040517f08c379a0000000000000000000000000000000000000000000000000000000008152600401610c4890612397565b60405180910390fd5b5f6002811115610c6457610c63611409565b5b60018381548110610c7857610c77611bf2565b5b905f5260205f20906007020160060160019054906101000a900460ff166002811115610ca757610ca6611409565b5b14610ce7576040517f08c379a0000000000000000000000000000000000000000000000000000000008152600401610cde90612425565b60405180910390fd5b6001805490508210610d2e576040517f08c379a0000000000000000000000000000000000000000000000000000000008152600401610d259061248d565b60405180910390fd5b60025f8381526020019081526020015f205f3373ffffffffffffffffffffffffffffffffffffffff1673ffffffffffffffffffffffffffffffffffffffff1681526020019081526020015f205f9054906101000a900460ff1615610dc7576040517f08c379a0000000000000000000000000000000000000000000000000000000008152600401610dbe906124f5565b60405180910390fd5b600160025f8481526020019081526020015f205f3373ffffffffffffffffffffffffffffffffffffffff1673ffffffffffffffffffffffffffffffffffffffff1681526020019081526020015f205f6101000a81548160ff0219169083151502179055505f8103610e6f5760018281548110610e4657610e45611bf2565b5b905f5260205f2090600702016004015f815480929190610e6590612513565b9190505550610ea8565b60018281548110610e8357610e82611bf2565b5b905f5260205f2090600702016005015f815480929190610ea290612513565b91905055505b3373ffffffffffffffffffffffffffffffffffffffff16827f1abe610cf2bf87e57dcc1181fcf5ac0934e843d8344ab9eed6e86c799f62585e83604051610eef919061255a565b60405180910390a35050565b6060805f805f805f805f60018a81548110610f1957610f18611bf2565b5b905f5260205f2090600702019050805f01816001018260020154836003015484600401548560050154866006015f9054906101000a900460ff168760060160019054906101000a900460ff16878054610f7190611bc2565b80601f0160208091040260200160405190810160405280929190818152602001828054610f9d90611bc2565b8015610fe85780601f10610fbf57610100808354040283529160200191610fe8565b820191905f5260205f20905b815481529060010190602001808311610fcb57829003601f168201915b50505050509750868054610ffb90611bc2565b80601f016020809104026020016040519081016040528092919081815260200182805461102790611bc2565b80156110725780601f1061104957610100808354040283529160200191611072565b820191905f5260205f20905b81548152906001019060200180831161105557829003601f168201915b505050505096509850985098509850985098509850985050919395975091939597565b60606001805480602002602001604051908101604052809291908181526020015f905b828210156112dd578382905f5260205f209060070201604051806101200160405290815f820180546110e990611bc2565b80601f016020809104026020016040519081016040528092919081815260200182805461111590611bc2565b80156111605780601f1061113757610100808354040283529160200191611160565b820191905f5260205f20905b81548152906001019060200180831161114357829003601f168201915b5050505050815260200160018201805461117990611bc2565b80601f01602080910402602001604051908101604052809291908181526020018280546111a590611bc2565b80156111f05780601f106111c7576101008083540402835291602001916111f0565b820191905f5260205f20905b8154815290600101906020018083116111d357829003601f168201915b5050505050815260200160028201548152602001600382015481526020016004820154815260200160058201548152602001600682015f9054906101000a900460ff1660ff1660ff1681526020016006820160019054906101000a900460ff16600281111561126257611261611409565b5b600281111561127457611273611409565b5b81526020016006820160029054906101000a900473ffffffffffffffffffffffffffffffffffffffff1673ffffffffffffffffffffffffffffffffffffffff1673ffffffffffffffffffffffffffffffffffffffff1681525050815260200190600101906110b8565b50505050905090565b5f604051905090565b5f80fd5b5f80fd5b5f819050919050565b611309816112f7565b8114611313575f80fd5b50565b5f8135905061132481611300565b92915050565b5f6020828403121561133f5761133e6112ef565b5b5f61134c84828501611316565b91505092915050565b5f81519050919050565b5f82825260208201905092915050565b5f5b8381101561138c578082015181840152602081019050611371565b5f8484015250505050565b5f601f19601f8301169050919050565b5f6113b182611355565b6113bb818561135f565b93506113cb81856020860161136f565b6113d481611397565b840191505092915050565b6113e8816112f7565b82525050565b5f60ff82169050919050565b611403816113ee565b82525050565b7f4e487b71000000000000000000000000000000000000000000000000000000005f52602160045260245ffd5b6003811061144757611446611409565b5b50565b5f81905061145782611436565b919050565b5f6114668261144a565b9050919050565b6114768161145c565b82525050565b5f73ffffffffffffffffffffffffffffffffffffffff82169050919050565b5f6114a58261147c565b9050919050565b6114b58161149b565b82525050565b5f610120820190508181035f8301526114d4818c6113a7565b905081810360208301526114e8818b6113a7565b90506114f7604083018a6113df565b61150460608301896113df565b61151160808301886113df565b61151e60a08301876113df565b61152b60c08301866113fa565b61153860e083018561146d565b6115466101008301846114ac565b9a9950505050505050505050565b61155d8161149b565b8114611567575f80fd5b50565b5f8135905061157881611554565b92915050565b5f8060408385031215611594576115936112ef565b5b5f6115a185828601611316565b92505060206115b28582860161156a565b9150509250929050565b5f8115159050919050565b6115d0816115bc565b82525050565b5f6020820190506115e95f8301846115c7565b92915050565b5f80fd5b5f80fd5b7f4e487b71000000000000000000000000000000000000000000000000000000005f52604160045260245ffd5b61162d82611397565b810181811067ffffffffffffffff8211171561164c5761164b6115f7565b5b80604052505050565b5f61165e6112e6565b905061166a8282611624565b919050565b5f67ffffffffffffffff821115611689576116886115f7565b5b61169282611397565b9050602081019050919050565b828183375f83830152505050565b5f6116bf6116ba8461166f565b611655565b9050828152602081018484840111156116db576116da6115f3565b5b6116e684828561169f565b509392505050565b5f82601f830112611702576117016115ef565b5b81356117128482602086016116ad565b91505092915050565b5f805f8060808587031215611733576117326112ef565b5b5f85013567ffffffffffffffff8111156117505761174f6112f3565b5b61175c878288016116ee565b945050602085013567ffffffffffffffff81111561177d5761177c6112f3565b5b611789878288016116ee565b935050604061179a87828801611316565b92505060606117ab87828801611316565b91505092959194509250565b600381106117c3575f80fd5b50565b5f813590506117d4816117b7565b92915050565b5f80604083850312156117f0576117ef6112ef565b5b5f6117fd85828601611316565b925050602061180e858286016117c6565b9150509250929050565b5f819050919050565b5f61183b6118366118318461147c565b611818565b61147c565b9050919050565b5f61184c82611821565b9050919050565b5f61185d82611842565b9050919050565b61186d81611853565b82525050565b5f6020820190506118865f830184611864565b92915050565b5f60208201905061189f5f8301846113fa565b92915050565b5f80604083850312156118bb576118ba6112ef565b5b5f6118c885828601611316565b92505060206118d985828601611316565b9150509250929050565b5f610100820190508181035f8301526118fc818b6113a7565b90508181036020830152611910818a6113a7565b905061191f60408301896113df565b61192c60608301886113df565b61193960808301876113df565b61194660a08301866113df565b61195360c08301856113fa565b61196060e083018461146d565b9998505050505050505050565b5f81519050919050565b5f82825260208201905092915050565b5f819050602082019050919050565b5f82825260208201905092915050565b5f6119b082611355565b6119ba8185611996565b93506119ca81856020860161136f565b6119d381611397565b840191505092915050565b6119e7816112f7565b82525050565b6119f6816113ee565b82525050565b611a058161145c565b82525050565b611a148161149b565b82525050565b5f61012083015f8301518482035f860152611a3582826119a6565b91505060208301518482036020860152611a4f82826119a6565b9150506040830151611a6460408601826119de565b506060830151611a7760608601826119de565b506080830151611a8a60808601826119de565b5060a0830151611a9d60a08601826119de565b5060c0830151611ab060c08601826119ed565b5060e0830151611ac360e08601826119fc565b50610100830151611ad8610100860182611a0b565b508091505092915050565b5f611aee8383611a1a565b905092915050565b5f602082019050919050565b5f611b0c8261196d565b611b168185611977565b935083602082028501611b2885611987565b805f5b85811015611b635784840389528151611b448582611ae3565b9450611b4f83611af6565b925060208a01995050600181019050611b2b565b50829750879550505050505092915050565b5f6020820190508181035f830152611b8d8184611b02565b905092915050565b7f4e487b71000000000000000000000000000000000000000000000000000000005f52602260045260245ffd5b5f6002820490506001821680611bd957607f821691505b602082108103611bec57611beb611b95565b5b50919050565b7f4e487b71000000000000000000000000000000000000000000000000000000005f52603260045260245ffd5b7f50726f706f73616c20697320616c72656164792066696e6973686564000000005f82015250565b5f611c53601c8361135f565b9150611c5e82611c1f565b602082019050919050565b5f6020820190508181035f830152611c8081611c47565b9050919050565b7f4f6e6c79207468652061646d696e2063616e2063616c6c20746869732066756e5f8201527f6374696f6e000000000000000000000000000000000000000000000000000000602082015250565b5f611ce160258361135f565b9150611cec82611c87565b604082019050919050565b5f6020820190508181035f830152611d0e81611cd5565b9050919050565b7f4e487b71000000000000000000000000000000000000000000000000000000005f52601160045260245ffd5b5f611d4c826112f7565b9150611d57836112f7565b9250828201905080821115611d6f57611d6e611d15565b5b92915050565b7f446561646c696e65206d757374206265206120667574757265206461746500005f82015250565b5f611da9601e8361135f565b9150611db482611d75565b602082019050919050565b5f6020820190508181035f830152611dd681611d9d565b9050919050565b5f819050815f5260205f209050919050565b5f6020601f8301049050919050565b5f82821b905092915050565b5f60088302611e397fffffffffffffffffffffffffffffffffffffffffffffffffffffffffffffffff82611dfe565b611e438683611dfe565b95508019841693508086168417925050509392505050565b5f611e75611e70611e6b846112f7565b611818565b6112f7565b9050919050565b5f819050919050565b611e8e83611e5b565b611ea2611e9a82611e7c565b848454611e0a565b825550505050565b5f90565b611eb6611eaa565b611ec1818484611e85565b505050565b5b81811015611ee457611ed95f82611eae565b600181019050611ec7565b5050565b601f821115611f2957611efa81611ddd565b611f0384611def565b81016020851015611f12578190505b611f26611f1e85611def565b830182611ec6565b50505b505050565b5f82821c905092915050565b5f611f495f1984600802611f2e565b1980831691505092915050565b5f611f618383611f3a565b9150826002028217905092915050565b611f7a82611355565b67ffffffffffffffff811115611f9357611f926115f7565b5b611f9d8254611bc2565b611fa8828285611ee8565b5f60209050601f831160018114611fd9575f8415611fc7578287015190505b611fd18582611f56565b865550612038565b601f198416611fe786611ddd565b5f5b8281101561200e57848901518255600182019150602085019450602081019050611fe9565b8683101561202b5784890151612027601f891682611f3a565b8355505b6001600288020188555050505b505050505050565b5f61204a826112f7565b9150612055836112f7565b925082820390508181111561206d5761206c611d15565b5b92915050565b5f6040820190508181035f83015261208b81856113a7565b905061209a60208301846113df565b9392505050565b7f5468652070726f706f73616c20697320616c72656164792066696e69736865645f82015250565b5f6120d560208361135f565b91506120e0826120a1565b602082019050919050565b5f6020820190508181035f830152612102816120c9565b9050919050565b7f4e6f74207065726d6974746564207374617475730000000000000000000000005f82015250565b5f61213d60148361135f565b915061214882612109565b602082019050919050565b5f6020820190508181035f83015261216a81612131565b9050919050565b7f50726f706f73616c20696e207374696c6c206f6e20636f7572736500000000005f82015250565b5f6121a5601b8361135f565b91506121b082612171565b602082019050919050565b5f6020820190508181035f8301526121d281612199565b9050919050565b5f6020820190506121ec5f8301846114ac565b92915050565b5f8151905061220081611300565b92915050565b5f6020828403121561221b5761221a6112ef565b5b5f612228848285016121f2565b91505092915050565b7f4e6f7420656e6f75676820746f6b656e7320746f20766f7465000000000000005f82015250565b5f61226560198361135f565b915061227082612231565b602082019050919050565b5f6020820190508181035f83015261229281612259565b9050919050565b7f54686520766f7465206d757374206265203020286f7074696f6e204129206f725f8201527f203120286f7074696f6e20422900000000000000000000000000000000000000602082015250565b5f6122f3602d8361135f565b91506122fe82612299565b604082019050919050565b5f6020820190508181035f830152612320816122e7565b9050919050565b7f54686520766f746174696f6e20646174652068617320616c72656164792066695f8201527f6e69736865640000000000000000000000000000000000000000000000000000602082015250565b5f61238160268361135f565b915061238c82612327565b604082019050919050565b5f6020820190508181035f8301526123ae81612375565b9050919050565b7f5468652070726f706f73616c206973206e6f742070656e64696e6720616e79205f8201527f6d6f726500000000000000000000000000000000000000000000000000000000602082015250565b5f61240f60248361135f565b915061241a826123b5565b604082019050919050565b5f6020820190508181035f83015261243c81612403565b9050919050565b7f50726f706f73616c20776173206e6f7420666f756e64000000000000000000005f82015250565b5f61247760168361135f565b915061248282612443565b602082019050919050565b5f6020820190508181035f8301526124a48161246b565b9050919050565b7f416c726561647920766f746564000000000000000000000000000000000000005f82015250565b5f6124df600d8361135f565b91506124ea826124ab565b602082019050919050565b5f6020820190508181035f83015261250c816124d3565b9050919050565b5f61251d826112f7565b91507fffffffffffffffffffffffffffffffffffffffffffffffffffffffffffffffff820361254f5761254e611d15565b5b600182019050919050565b5f60208201905061256d5f8301846113df565b9291505056fea264697066735822122065490e93f121b28542116859efcd3cc00cbbc013a83b867f496916be08f13b1d64736f6c63430008150033",
  "immutableReferences": {},
  "source": "// SPDX-License-Identifier: MIT\npragma solidity ^0.8.0;\n\nimport { RatherToken } from \"./RatherToken.sol\";\n\ncontract DAO {\n\n    RatherToken public ratherTokenContract;\n    enum ProposalStatus { Pending, Closed, Finished }\n\n    struct Proposal {\n        string title;\n        string description;\n        uint256 proposalDeadline;\n        uint256 minimumVotes;\n        uint256 votesForOptionA;\n        uint256 votesForOptionB;\n        uint8 winningOption; // 0 for option A, 1 for option B\n        ProposalStatus status;\n        address admin;\n    }\n\n    event ProposalCreated(uint256 indexed proposalIndex, string title, uint256 proposalDeadline);\n    event Voted(uint256 indexed proposalIndex, address indexed voter, uint256 vote);\n    event ProposalFinished(uint256 indexed proposalIndex, bool proposalPassed);\n\n    Proposal[] public proposals;\n    mapping(uint256 => mapping(address => bool)) public hasVoted;\n\n    constructor(address _tokenAddress) {\n        ratherTokenContract = RatherToken(_tokenAddress);\n    }\n\n    function createProposal(\n        string memory _title,\n        string memory _description,\n        uint256 _proposalDeadline,\n        uint256 _minimumVotes\n    ) public {\n        require(_proposalDeadline > block.timestamp, \"Deadline must be a future date\");\n\n        proposals.push(\n            Proposal({\n                title: _title,\n                description: _description,\n                proposalDeadline: _proposalDeadline,\n                minimumVotes: _minimumVotes,\n                votesForOptionA: 0,\n                votesForOptionB: 0,\n                winningOption: 0,\n                status: ProposalStatus.Pending,\n                admin: msg.sender\n            })\n        );\n\n        uint256 proposalIndex = proposals.length - 1;\n        emit ProposalCreated(proposalIndex, _title, _proposalDeadline);\n    }\n\n    function vote(uint256 _proposalIndex, uint256 _vote) public {\n        require(ratherTokenContract.balanceOf(msg.sender) > 0, \"Not enough tokens to vote\");\n        require(_vote == 0 || _vote == 1, \"The vote must be 0 (option A) or 1 (option B)\");\n        require(proposals[_proposalIndex].proposalDeadline > block.timestamp, \"The votation date has already finished\");\n        require(proposals[_proposalIndex].status == ProposalStatus.Pending, \"The proposal is not pending any more\");\n        require(_proposalIndex < proposals.length, \"Proposal was not found\");\n        require(!hasVoted[_proposalIndex][msg.sender],  \"Already voted\");\n\n        hasVoted[_proposalIndex][msg.sender] = true;\n\n        if (_vote == 0) {\n            proposals[_proposalIndex].votesForOptionA++;\n        } else {\n            proposals[_proposalIndex].votesForOptionB++;\n        }\n\n        emit Voted(_proposalIndex, msg.sender, _vote);\n    }\n\n    function changeProposalStatus(uint256 _proposalIndex, ProposalStatus _newStatus) external {\n        Proposal storage proposal = proposals[_proposalIndex];\n        require(msg.sender == proposal.admin, \"Only the admin can call this function\");\n\n        require(proposal.status != ProposalStatus.Finished, \"The proposal is already finished\");\n        require(_newStatus == ProposalStatus.Pending || _newStatus == ProposalStatus.Closed, \"Not permitted status\");\n\n        proposal.status = _newStatus;\n    }\n\n    function finishProposal(uint256 _proposalIndex) external {\n        Proposal storage proposal = proposals[_proposalIndex];\n        require(proposal.status != ProposalStatus.Finished, \"Proposal is already finished\");\n        require(msg.sender == proposal.admin, \"Only the admin can call this function\");\n\n        proposal.status = ProposalStatus.Finished;\n\n        if ((proposal.votesForOptionA + proposal.votesForOptionB) >= proposal.minimumVotes) {\n            if (proposal.votesForOptionA > proposal.votesForOptionB) {\n                proposal.winningOption = 0; // Opcin A gan\n            } else {\n                proposal.winningOption = 1; // Opcin B gan\n            }\n        }\n\n        emit ProposalFinished(_proposalIndex, true);\n    }\n\n    function getWinningOption(uint256 _proposalIndex) external view returns (uint8 winningOption) {\n        Proposal storage proposal = proposals[_proposalIndex];\n        require(proposal.status == ProposalStatus.Finished, \"Proposal in still on course\");\n\n        return proposal.winningOption;\n    }\n\n    function getAllProposals() external view returns (Proposal[] memory) {\n        return proposals;\n    }\n\n    function getProposal(uint256 _proposalIndex) external view returns (\n        string memory title,\n        string memory description,\n        uint256 proposalDeadline,\n        uint256 minimumVotes,\n        uint256 votesForOptionA,\n        uint256 votesForOptionB,\n        uint8 winningOption,\n        ProposalStatus status\n    ) {\n        Proposal storage proposal = proposals[_proposalIndex];\n        return (\n            proposal.title,\n            proposal.description,\n            proposal.proposalDeadline,\n            proposal.minimumVotes,\n            proposal.votesForOptionA,\n            proposal.votesForOptionB,\n            proposal.winningOption,\n            proposal.status\n        );\n    }\n}\n",
  "sourcePath": "/Users/apple/workspace/rather-labs-challenge/smartcontracts/contracts/DAO.sol",
  "compiler": {
    "name": "solc",
    "version": "0.8.21+commit.d9974bed.Emscripten.clang"
  },
  "schemaVersion": "3.4.16",
  "updatedAt": "2024-01-09T14:34:26.883Z",
  "devdoc": {
    "kind": "dev",
    "methods": {},
    "version": 1
  },
  "userdoc": {
    "kind": "user",
    "methods": {},
    "version": 1
  }
}